:100000000C9495130C94BD130C94BD130C949C206C
:100010000C949C200C949C200C94BD130C94BD1348
:100020000C94BD130C94BD130C94BD130C94BD1310
:100030000C94BD130C94BD130C94BD130C94BD1300
:100040000C9452200C94BD130C9420200C94FA1F95
:100050000C94BD130C94BD130C94BD130C94BD13E0
:100060000C94BD130C94BD1305A84CCDB2D44EB95D
:100070003836A9020C50B9918688083CA6AAAA2A4B
:10008000BE000000803FFFE0FFD1AFFF32FFD0FF96
:10009000FEFFE0FFD1AEFFD0FFFEFFE0FFD110007A
:1000A000FFFEFFD0FFE0FFC1FFD1AED580A83FD358
:1000B00000408D142000A1C8DA1281CFD9F1DB40B5
:1000C0002EA4A6AFFFD0FFFE000000080002010032
:1000D0000003040700000000000000000000000012
:1000E00023002600290000000000240027002A0029
:1000F00000000000250028002B0004040404040470
:1001000004040202020202020303030303030102C6
:100110000408102040800102040810200102040895
:100120001020000C1500FC0E0375077120FFFC1257
:10013000FC10FC0000000C0000020E0E0C0400C0BD
:10014000C0C0C0C0C0C0C0C0C00000C0C00606065D
:100150000C020ACCCCCCCCCCCC0A0A140C00043354
:10016000003300FFC0FFC033003300FFC0FFC033C7
:100170000033000A12240C00FE0C000C003F007F2C
:1001800080EDC0CCC0CC00EC007F003F800DC00CE7
:10019000C0CCC0EDC07F803F000C000C000A0E1CDC
:1001A0000C00003FC07FC0CCC0CDC0CF80CF007F4F
:1001B000003F803CC07CC0ECC0CCC0C780C3000AFC
:1001C0000E1C0C00003E007F00E300C700CE00FCC8
:1001D0000078007800FCC0CFC0C780E7807FC03CBB
:1001E000C00206060C040AC0C0C0C0C0C00612127D
:1001F0000C02FE0C1C3870E0C0C0C0C0C0C0C0C043
:10020000E070381C0C0612120C02FEC0E070381CA4
:100210000C0C0C0C0C0C0C0C1C3870E0C00A0A14F2
:100220000C00040C000C00CCC0FFC03F003F00FFDE
:10023000C0CCC00C000C000A0A140C00020C000C0C
:10024000000C000C00FFC0FFC00C000C000C000CE8
:10025000000509090C02FC30787838183870E04045
:100260000602020C0206FCFC0404040C030160F00C
:10027000F0600B14280C00FC0060006000C000C09F
:100280000180018003000300060006000C000C0042
:10029000180018003000300060006000C000C0008E
:1002A0000A0E1C0C00003F007F80E1C0C1C0C3C02B
:1002B000C7C0CEC0DCC0F8C0F0C0E0C0E1C07F80E5
:1002C0003F000A0E1C0C00000C000C007C007C009F
:1002D0000C000C000C000C000C000C000C000C00BE
:1002E000FFC0FFC00A0E1C0C00003F007F80E1C071
:1002F000C0C000C001C0038007000E001C00380011
:100300007000FFC0FFC00A0E1C0C00003F007F8081
:10031000E1C0C0C000C001800F000F8001C000C05C
:10032000C0C0E1C07F803F000A0E1C0C000003002B
:1003300007000F001F003B007300E300C300FFC075
:10034000FFC0030003000FC00FC00A0E1C0C00000A
:10035000FFC0FFC0C000C000FF00FF8001C000C0A0
:1003600000C000C0C0C0E1C07F803F000A0E1C0C6E
:1003700000003F007F00E000C000FF00FF80C1C020
:10038000C0C0C0C0C0C0C0C0E1C07F803F000A0E76
:100390001C0C0000FFC0FFC000C000C000C001C0B6
:1003A000038007000E000C000C000C000C000C0079
:1003B0000A0E1C0C00003F007F80E1C0C0C0C0C01E
:1003C00061803F007F80E1C0C0C0C0C0E1C07F80CD
:1003D0003F000A0E1C0C00003F007F80E1C0C0C03F
:1003E000C0C0C0C0C0C0E0C07FC03FC000C001C02E
:1003F0003F803F00040A0A0C030160F0F060000037
:1004000060F0F060050F0F0C02FC307878300000CF
:1004100030787838183870E040080E0E0C0200036F
:10042000070E1C3870E0E070381C0E07030A060C3B
:100430000C0004FFC0FFC000000000FFC0FFC008A8
:100440000E0E0C0200C0E070381C0E07070E1C38A0
:1004500070E0C00A0E1C0C00003F007F80E1C0C0AD
:10046000C000C001C0038007000E000C00000000A7
:10047000000C000C000A0E1C0C00003F007F80E105
:10048000C0C0C0C7C0CFC0CCC0CCC0CFC0C780C068
:1004900000E0007FC03FC00A0E1C0C00000C001ED4
:1004A000001E003300330061806180C0C0FFC0FFC8
:1004B000C0C0C0C0C0C0C0C0C00A0E1C0C0000FF3D
:1004C00000FF80C1C0C0C0C0C0C180FF00FF80C1AC
:1004D000C0C0C0C0C0C1C0FF80FF000A0E1C0C001D
:1004E000003F007F80E1C0C0C0C000C000C000C0AD
:1004F00000C000C000C0C0E1C07F803F000A0E1CE9
:100500000C0000FF00FF80C1C0C0C0C0C0C0C0C0A0
:10051000C0C0C0C0C0C0C0C0C0C1C0FF80FF000A12
:100520000E1C0C0000FFC0FFC0C000C000C000C017
:1005300000FF00FF00C000C000C000C000FFC0FFFF
:10054000C00A0E1C0C0000FFC0FFC0C000C000C0ED
:1005500000C000FF00FF00C000C000C000C000C01D
:1005600000C0000A0E1C0C00003F007F80E1C0C0EC
:10057000C0C000C000C3C0C3C0C0C0C0C0C0C0E1D4
:10058000C07F803F000A0E1C0C0000C0C0C0C0C06D
:10059000C0C0C0C0C0C0C0FFC0FFC0C0C0C0C0C0DD
:1005A000C0C0C0C0C0C0C00A0E1C0C0000FFC0FF0D
:1005B000C00C000C000C000C000C000C000C000C1B
:1005C000000C000C00FFC0FFC00A0E1C0C00000055
:1005D000C000C000C000C000C000C000C000C0C05B
:1005E000C0C0C0C0C0E1C07F803F000A0E1C0C002C
:1005F00000C1C0C380C700CE00DC00F800F000F8E6
:1006000000DC00CE00C700C380C1C0C0C00A0E1C01
:100610000C0000C000C000C000C000C000C000C08E
:1006200000C000C000C000C000C000FFC0FFC00A82
:100630000E1C0C0000C0C0E1C0F3C0FFC0DEC0CC87
:10064000C0CCC0CCC0C0C0C0C0C0C0C0C0C0C0C092
:10065000C00A0E1C0C0000C0C0E0C0F0C0F8C0DC36
:10066000C0CEC0C7C0C3C0C1C0C0C0C0C0C0C0C071
:10067000C0C0C00A0E1C0C00003F007F80E1C0C05B
:10068000C0C0C0C0C0C0C0C0C0C0C0C0C0C0C0E149
:10069000C07F803F000A0E1C0C0000FF00FF80C1DD
:1006A000C0C0C0C0C0C1C0FF80FF00C000C000C04B
:1006B00000C000C000C0000A10200C00FE3F007FF8
:1006C00080E1C0C0C0C0C0C0C0C0C0C0C0C0C0C049
:1006D000C0CCC0EFC07F803F8001C000C00A0E1CAC
:1006E0000C0000FF00FF80C1C0C0C0C0C0C180FFBF
:1006F00000FF80C1C0C0C0C0C0C0C0C0C0C0C00A70
:100700000E1C0C00003F007F80E1C0C0C0C000E0B4
:10071000007F003F8001C000C0C0C0E1C07F803FBB
:10072000000A0E1C0C0000FFC0FFC00C000C000CE7
:10073000000C000C000C000C000C000C000C000C59
:10074000000C000A0E1C0C0000C0C0C0C0C0C0C01D
:10075000C0C0C0C0C0C0C0C0C0C0C0C0C0C0C0E178
:10076000C07F803F000A0E1C0C0000C0C0C0C0C08B
:10077000C0C0C0C0C0C0C061806180330033001EF3
:10078000001E000C000C000A0E1C0C0000C0C0C0B3
:10079000C0C0C0C0C0C0C0C0C0CCC0CCC0CCC0DE17
:1007A000C0FFC0F3C0E1C0C0C00A0E1C0C0000C0F6
:1007B000C0C0C0C0C0E1C073803F001E001E003F2B
:1007C000007380E1C0C0C0C0C0C0C00A0E1C0C00D5
:1007D00000C0C0C0C0C0C0C0C0C0C0E1C073803FC6
:1007E000001E000C000C000C000C000C000A0E1C7B
:1007F0000C0000FFC0FFC000C001C0038007000E56
:10080000001C0038007000E000C000FFC0FFC00402
:1008100012120C04FEF0F0C0C0C0C0C0C0C0C0C006
:10082000C0C0C0C0C0F0F00B14280C01FCC000C058
:10083000006000600030003000180018000C000C50
:100840000006000600030003000180018000C000D4
:10085000C0006000600412120C02FEF0F030303074
:100860003030303030303030303030F0F00A060C7C
:100870000C00080C001E003F007380E1C040800C9B
:1008800002040C00FCFFF0FFF00404040C020CC096
:10089000E070300A0A140C00003FC07FC0E0C0C006
:1008A000C0C0C0C1C0C3C0E7C07EC03CC00A0E1CEF
:1008B0000C0000C000C000C000C000FF00FF80C1ED
:1008C000C0C0C0C0C0C0C0C0C0C1C0FF80FF000A5F
:1008D0000A140C00003F007F80E1C0C0C0C000C00F
:1008E00000C000E0007FC03FC00A0E1C0C000000EA
:1008F000C000C000C000C03FC07FC0E0C0C0C0C0DA
:10090000C0C0C0C0C0E0C07FC03FC00A0A140C0015
:10091000003F007F80E1C0C0C0FFC0FFC0C000E05A
:10092000007FC03FC0080E0E0C02000F1F3830FCC5
:10093000FC30303030303030300A0E1C0C00FC3FC0
:10094000C07FC0E0C0C0C0C0C0C0C0C0C0E0C07FE9
:10095000C03FC000C001C03F803F000A0E1C0C0019
:1009600000C000C000C000C000FF00FF80C1C0C0C8
:10097000C0C0C0C0C0C0C0C0C0C0C0C0C0060E0E95
:100980000C020030300000F0F0303030303030FCFD
:10099000FC0612120C00FC0C0C00003C3C0C0C0C75
:1009A0000C0C0C0C0C0C1CF8F00A0E1C0C0000C0FB
:1009B00000C000C000C000C380C700CE00DC00FC47
:1009C00000FE00E700C380C1C0C0C0060E0E0C02CE
:1009D00000F0F030303030303030303030FCFC0A55
:1009E0000A140C0000FF00FF80CDC0CCC0CCC0CCEE
:1009F000C0CCC0CCC0CCC0CCC00A0A140C0000CF04
:100A000000DF80F9C0F0C0E0C0C0C0C0C0C0C0C03E
:100A1000C0C0C00A0A140C00003F007F80E1C0C0C3
:100A2000C0C0C0C0C0C0C0E1C07F803F000A0E1C73
:100A30000C00FCFF00FF80C1C0C0C0C0C0C0C0C06F
:100A4000C0C1C0FF80FF00C000C000C000C0000ADD
:100A50000E1C0C00FC3FC07FC0E0C0C0C0C0C0C0C6
:100A6000C0C0C0E0C07FC03FC000C000C000C00028
:100A7000C00A0A140C0000CF00DF80F9C0F0C0E00B
:100A800000C000C000C000C000C0000A0A140C0072
:100A9000003FC07FC0C000C0007F003F8000C0009A
:100AA000C0FF80FF00080E0E0C020030303030FC1A
:100AB000FC3030303030381F0F0A0A140C0000C0F0
:100AC000C0C0C0C0C0C0C0C0C0C1C0C3C0E7C07E3D
:100AD000C03CC00A0A140C0000C0C0C0C0C0C06145
:100AE000806180338033001E001E000C000A0A144F
:100AF0000C0000CCC0CCC0CCC0CCC0CCC0CCC0CCD6
:100B0000C0CCC07F8033000A0A140C0000C0C0E1D2
:100B1000C073803F001E001E003F007380E1C0C014
:100B2000C00A0E1C0C00FCC0C0C0C0C0C0C0C0C009
:100B3000C0C0C0C0C0E0C07FC03FC000C001C03F57
:100B4000803F000A0A140C0000FFC0FFC0038007AA
:100B5000000E001C0038007000FFC0FFC006161613
:100B60000C02FC0C1C3830303030303070E0E0705B
:100B7000303030303030381C0C0212120C04FEC001
:100B8000C0C0C0C0C0C0C0C0C0C0C0C0C0C0C0C065
:100B9000C00616160C02FCC0E07030303030303029
:100BA000381C1C3830303030303070E0C00A040857
:100BB0000C000630C07CC0CF80C3000000000C00D9
:100BC000000000000C00000000000C0000040707FB
:100BD0000C00FD3030303070E0400A162C0C00FC68
:100BE00003C007C00E000C000C000C000C000C0031
:100BF0003F003F000C000C000C000C000C000C002F
:100C00000C000C000C001C00F800F0000807070C9A
:100C100000FD3333333377EE440A02040C0000CC7A
:100C2000C0CCC0060A0A0C02043030FCFC30303064
:100C3000303030060A0A0C02043030FCFC3030FC44
:100C4000FC30300604040C020C3078FCCC0C102074
:100C50000C00003FF07FF0CCE0CDC0CF80CF007E15
:100C6000003C003CC07FE0F330F330B33033301F42
:100C7000E00CC00A12240C000033003F001E000CE0
:100C8000003F007F80E1C0C0C0C000E0007F003FA7
:100C90008001C000C0C0C0E1C07F803F00040A0ADC
:100CA0000C00FF307060E0C0C0E06070300A0E1CC5
:100CB0000C00003FC07FC0EC00CC00CC00CC00CFCB
:100CC00000CF00CC00CC00CC00EC007FC03FC000C7
:100CD00000000C00000000000C00000000000C00F0
:100CE000000000000C00000407070C04082070E05E
:100CF000C0C0C0C00407070C04073030303070E0BB
:100D0000400807070C02082277EECCCCCCCC0807B1
:100D1000070C02073333333377EE440A0A140C000E
:100D2000021E007F807F80FFC0FFC0FFC0FFC07F2A
:100D3000807F801E000602020C0206FCFC0C0204EE
:100D40000C0006FFF0FFF00A04080C000C30C07C19
:100D5000C0CF80C3000C060C0C0008FF30FFF0333E
:100D6000F033F0333033300A10200C000033003FF2
:100D7000001E000C00000000003FC07FC0C000C08B
:100D8000007F003F8000C000C0FF80FF00040A0A0F
:100D90000C00FFC0E0607030307060E0C00A0A14E0
:100DA0000C000033007F80CCC0CCC0CFC0CFC0CC03
:100DB00000CC007FC033C00000000C000000000029
:100DC0000C00000A12240C00003300330000000065
:100DD00000C0C0C0C0C0C0C0C0C0C0E1C073803FC0
:100DE000001E000C000C000C000C000C00000000A9
:100DF0000C0000020E0E0C0600C0C00000C0C0C0F7
:100E0000C0C0C0C0C0C0C00A0E1C0C00FE0C000C4C
:100E1000003F007F80EDC0CCC0CC00CC00CC00EC0B
:100E2000007FC03FC00C000C000A10200C00003CEA
:100E3000007E00E700C300C000C000FC00FC00C052
:100E400000C000C000C000C0C0C1C0FF80FF000AD9
:100E50000A140C00004080E1C07F803F0033003363
:100E6000003F007F80E1C040800A0E1C0C0000C0E3
:100E7000C0E1C073803F00FFC0FFC00C000C00FF4A
:100E8000C0FFC00C000C000C000C000212120C047D
:100E9000FEC0C0C0C0C0C0C0C00000C0C0C0C0C094
:100EA000C0C0C00A14280C00FE1F007F8061C0E093
:100EB000C070C038C0DC00CE00C700E38071C0380D
:100EC000C01CC00EC0C700C380C1C0E1807F803E8F
:100ED000000602020C020CCCCC0A0E1C0C0000789E
:100EE00000FE00870001803D807CC0C0C0C0C07C87
:100EF000C03D8001808700FE007800080C0C0C02C9
:100F0000063F7FE3C3C3E37F3F0000FFFF0A0A14ED
:100F10000C00FF30C071C06180E380C300C300E3F8
:100F200080618071C030C00A060C0C0002FFC0FF57
:100F3000C000C000C000C000C00A02040C0006FFD0
:100F4000C0FFC00A0C180C00027800FE00870001E8
:100F500080F180F8C0CCC0CCC0F8C0F9C0DF80CF31
:100F6000000602020C020CFCFC0808080C02083CFB
:100F70007EE7C3C3E77E3C0A0C180C00000C000C93
:100F8000000C000C00FFC0FFC00C000C000C000C9B
:100F900000FFC0FFC00507070C030B708808102076
:100FA00040F80507070C030B7088083008887004A8
:100FB00004040C040C3070E0C00A0E1C0C00FCC3CE
:100FC00000C300C300C300C300C300C300C780FF49
:100FD000C0FCC0C000C000C000C0000A10200C004F
:100FE000001FC07FC07CC0ECC0CCC0CCC0ECC07CBB
:100FF000C07FC01FC00CC00CC00CC00CC00CC00C0B
:10100000C00404040C040460F0F0600406060C0242
:10101000FCF0F03070E0400507070C030B20E020E7
:10102000202020F8080C0C0C02063C7EE7C3C3E726
:101030007E3C0000FFFF0A0A140C00FFC300E3809F
:10104000618071C030C030C071C06180E380C30076
:101050000C12240C00001000700010001000101082
:1010600010207C400080010002000400084010C0F5
:101070002140424083E0004000E00C12240C0000BC
:101080001000700010001000101010207C40008034
:1010900001000200040009C012202020404080808E
:1010A000010003E00C12240C00003800440004008E
:1010B00018000410442038400080010002000400A1
:1010C000084010C02140424083E0004000E00A0E8A
:1010D0001C0C00000C000C00000000000C001C00A8
:1010E00038007000E000C000C0C0E1C07F803F0059
:1010F0000A12240C0000300038001C000C000C0008
:101100001E001E003300330061806180C0C0FFC03C
:10111000FFC0C0C0C0C0C0C0C0C00A12240C0000C4
:10112000030007000E000C000C001E001E00330020
:10113000330061806180C0C0FFC0FFC0C0C0C0C0BC
:10114000C0C0C0C00A12240C00000C001E003F00EA
:1011500033000C001E001E003300330061806180EC
:10116000C0C0FFC0FFC0C0C0C0C0C0C0C0C00A1265
:10117000240C000030C07CC0CF80C3000C001E00D7
:101180001E003300330061806180C0C0FFC0FFC01B
:10119000C0C0C0C0C0C0C0C00A12240C00003300D0
:1011A0003300000000000C001E001E00330033005E
:1011B00061806180C0C0FFC0FFC0C0C0C0C0C0C0EF
:1011C000C0C00A12240C00000C001E0033003300C3
:1011D0001E001E001E003300330061806180C0C00D
:1011E000FFC0FFC0C0C0C0C0C0C0C0C00A0E1C0C41
:1011F00000003FC07FC0EC00CC00CC00CC00FF0062
:10120000FF00CC00CC00CC00CC00CFC0CFC00A1275
:10121000240C00FC3F007F80E1C0C0C0C000C000C3
:10122000C000C000C000C000C0C0E1C07F803F005F
:101230000C001C00380010000A12240C00003000C2
:1012400038001C000C00FFC0FFC0C000C000C00080
:10125000C000FF00FF00C000C000C000C000FFC011
:10126000FFC00A12240C0000030007000E000C004F
:10127000FFC0FFC0C000C000C000C000FF00FF00F2
:10128000C000C000C000C000FFC0FFC00A12240C94
:1012900000000C001E003F003300FFC0FFC0C00074
:1012A000C000C000C000FF00FF00C000C000C000C0
:1012B000C000FFC0FFC00A12240C0000330033003E
:1012C00000000000FFC0FFC0C000C000C000C000A0
:1012D000FF00FF00C000C000C000C000FFC0FFC092
:1012E0000A12240C0000300038001C000C00FFC063
:1012F000FFC00C000C000C000C000C000C000C00DB
:101300000C000C000C00FFC0FFC00A12240C0000EF
:10131000030007000E000C00FFC0FFC00C000C0013
:101320000C000C000C000C000C000C000C000C005D
:10133000FFC0FFC00A12240C00000C001E003F007A
:101340003300FFC0FFC00C000C000C000C000C00B0
:101350000C000C000C000C000C00FFC0FFC00A12B7
:10136000240C00003300330000000000FFC0FFC069
:101370000C000C000C000C000C000C000C000C000D
:101380000C000C00FFC0FFC00A0E1C0C00003F0048
:101390003F8031C030C030C030C0FCC0FCC030C065
:1013A00030C030C031C03F803F000A12240C000022
:1013B00030C07CC0CF80C700C0C0E0C0F0C0F8C063
:1013C000DCC0CEC0C7C0C3C0C1C0C0C0C0C0C0C0E8
:1013D000C0C0C0C00A12240C0000300038001C003D
:1013E0000C003F007F80E1C0C0C0C0C0C0C0C0C012
:1013F000C0C0C0C0C0C0C0C0E1C07F803F000A12F2
:10140000240C0000030007000E000C003F007F804A
:10141000E1C0C0C0C0C0C0C0C0C0C0C0C0C0C0C0AB
:10142000C0C0E1C07F803F000A12240C00000C0005
:101430001E003F00330000003F007F80E1C0C0C0BD
:10144000C0C0C0C0C0C0C0C0C0C0C0C0E1C07F80FC
:101450003F000A12240C000030C07CC0CF80C700BF
:101460003F007F80E1C0C0C0C0C0C0C0C0C0C0C01D
:10147000C0C0C0C0C0C0E1C07F803F000A12240CC1
:10148000000033003300000000003F007F80E1C017
:10149000C0C0C0C0C0C0C0C0C0C0C0C0C0C0C0C04C
:1014A000E1C07F803F000A0A140C00024080E1C0C6
:1014B00073803F001E001E003F007380E1C040802B
:1014C0000A0E1C0C00003F007F80E1C0C1C0C3C0F9
:1014D000C7C0CEC0DCC0F8C0F0C0E0C0E1C07F80B3
:1014E0003F000A12240C0000300038001C000C00E1
:1014F000C0C0C0C0C0C0C0C0C0C0C0C0C0C0C0C0EC
:10150000C0C0C0C0C0C0E1C07F803F000A12240C30
:101510000000030007000E000C00C0C0C0C0C0C027
:10152000C0C0C0C0C0C0C0C0C0C0C0C0C0C0C0C0BB
:10153000E1C07F803F000A12240C00000C001E0056
:101540003F0033000000C0C0C0C0C0C0C0C0C0C0A9
:10155000C0C0C0C0C0C0C0C0C0C0E1C07F803F002C
:101560000A12240C00003300330000000000C0C049
:10157000C0C0C0C0C0C0C0C0C0C0C0C0C0C0C0C06B
:10158000C0C0C0C0E1C07F803F000A12240C000030
:10159000030007000E000C00C0C0C0C0C0C0C0C027
:1015A000C0C0E1C073803F001E000C000C000C00A6
:1015B0000C000C000A0E1C0C0000C000C000FF0054
:1015C000FF80C1C0C0C0C0C0C1C0FF80FF00C0005C
:1015D000C000C000C0000A12240C00FE0F001F80D3
:1015E00039C070C0E0C0C1C0C380C300C300C380A5
:1015F000C1C0C0C0C0C0C1C0CF80CF00C000C0004B
:101600000A10200C00000C000E0007000300000070
:1016100000003FC07FC0E0C0C0C0C0C0C1C0C3C0E8
:10162000E7C07EC03CC00A10200C00000300070089
:101630000E000C00000000003FC07FC0E0C0C0C032
:10164000C0C0C1C0C3C0E7C07EC03CC00A10200CEF
:1016500000000C001E003F003300000000003FC0EF
:101660007FC0E0C0C0C0C0C0C1C0C3C0E7C07EC0B2
:101670003CC00A10200C000030C07CC0CF80C700E6
:10168000000000003FC07FC0E0C0C0C0C0C0C1C0FB
:10169000C3C0E7C07EC03CC00A0E1C0C0000330073
:1016A0003300000000003FC07FC0E0C0C0C0C0C029
:1016B000C1C0C3C0E7C07EC03CC00A10200C0000FF
:1016C0000C001E00330033001E000C003FC07FC022
:1016D000E0C0C0C0C0C0C1C0C3C0E7C07EC03CC085
:1016E0000A0A140C00003F007F80EDC0CCC0CFC0C0
:1016F000CFC0CC00EC007FC03FC00A0E1C0C00FC29
:101700003F007F80E1C0C0C0C000C000C000E0005A
:101710007FC03FC00C001C00380010000A10200CD5
:101720000000300038001C000C00000000003F00EA
:101730007F80E1C0C0C0FFC0FFC0C000E0007FC02C
:101740003FC00A10200C0000030007000E000C0030
:10175000000000003F007F80E1C0C0C0FFC0FFC0AC
:10176000C000E0007FC03FC00A10200C00000C0049
:101770001E003F003300000000003F007F80E1C0FA
:10178000C0C0FFC0FFC0C000E0007FC03FC00A0E65
:101790001C0C000033003300000000003F007F807D
:1017A000E1C0C0C0FFC0FFC0C000E0007FC03FC0BC
:1017B0000610100C0200C0E070300000F0F0303075
:1017C00030303030FCFC0610100C02000C1C38309D
:1017D0000000F0F0303030303030FCFC0610100CDF
:1017E00002003078FCCC0000F0F030303030303087
:1017F000FCFC060E0E0C0200CCCC0000F0F03030E9
:1018000030303030FCFC0A11220C000024007E0035
:101810003C003C007E00270003803FC07FC0E1C049
:10182000C0C0C0C0C0C0C0C0E1C07F803F000A10BF
:10183000200C000030C07CC0CF80C700000000003A
:10184000CF00DF80F9C0F0C0E0C0C0C0C0C0C0C0E1
:10185000C0C0C0C00A10200C0000300038001C00BE
:101860000C00000000003F007F80E1C0C0C0C0C08D
:10187000C0C0C0C0E1C07F803F000A10200C000043
:10188000030007000E000C00000000003F007F80F6
:10189000E1C0C0C0C0C0C0C0C0C0E1C07F803F00C8
:1018A0000A10200C00000C001E003F003300000056
:1018B00000003F007F80E1C0C0C0C0C0C0C0C0C049
:1018C000E1C07F803F000A10200C000030C07CC0C7
:1018D000CF80C700000000003F007F80E1C0C0C093
:1018E000C0C0C0C0C0C0E1C07F803F000A0E1C0C59
:1018F000000033003300000000003F007F80E1C0A3
:10190000C0C0C0C0C0C0C0C0E1C07F803F000A0AE4
:10191000140C00020C000C0000000000FFC0FFC00F
:10192000000000000C000C000A0A140C00003F002C
:101930007F80E3C0C7C0CEC0DCC0F8C0F1C07F80EC
:101940003F000A10200C0000300038001C000C0082
:1019500000000000C0C0C0C0C0C0C0C0C0C0C1C086
:10196000C3C0E7C07EC03CC00A10200C00000300CA
:1019700007000E000C0000000000C0C0C0C0C0C0C6
:10198000C0C0C0C0C1C0C3C0E7C07EC03CC00A1058
:10199000200C00000C001E003F003300000000007F
:1019A000C0C0C0C0C0C0C0C0C0C0C1C0C3C0E7C00C
:1019B0007EC03CC00A0E1C0C000033003300000047
:1019C0000000C0C0C0C0C0C0C0C0C0C0C1C0C3C093
:1019D000E7C07EC03CC00A14280C00FC03000700CE
:1019E0000E000C0000000000C0C0C0C0C0C0C0C0DD
:1019F000C0C0C0C0C0C0E0C07FC03FC000C001C008
:101A00003F803F000A12240C00FCC000C000C00050
:101A1000C000FF00FF80C1C0C0C0C0C0C0C0C0C007
:101A2000C1C0FF80FF00C000C000C000C0000A129B
:101A3000240C00FC3300330000000000C0C0C0C014
:101A4000C0C0C0C0C0C0C0C0C0C0E0C07FC03FC038
:101A500000C001C03F803F0000070C00000A017178
:101A60000358207F010C000C00000000070001005B
:101A7000000007000100000007000100000007004F
:101A80000100000007000100000007000100000045
:101A9000070001000000070001030A0A07000260B6
:101AA000808080808080808060030A0A070302C0F3
:101AB0002020202020202020C0050505080107A89F
:101AC000702070A8070707080004101010FE1010FF
:101AD0001002020207020A4080070101080007FE07
:101AE000020202070202C0C0070A0A08000202043A
:101AF0000408101020404080060A0A070002FC84F7
:101B000084848484848484FC020A0A070402C0401A
:101B10004040404040404040060A0A070002FC04A2
:101B2000040404FC808080FC060A0A070002FC040E
:101B300004043C04040404FC060A0A07000284842A
:101B4000848484FC04040404060A0A070002FC805E
:101B50008080FC04040404FC060A0A070002FC80DE
:101B60008080FC84848484FC060A0A070002FC044A
:101B70000404040404040404060A0A070002FC84A2
:101B80008484FC84848484FC060A0A070002FC84A2
:101B90008484FC04040404FC020707070202C0C09A
:101BA000000000C0C00000000700010000000700A6
:101BB0000100000007000100000007000100000014
:101BC000070001000000070001070A0A080002FEE2
:101BD00082828282FE82828282070A0A080002FED4
:101BE000828282FC82828282FE070A0A080002FE4A
:101BF0008080808080808080FE070A0A080002FCC6
:101C00008282828282828282FC070A0A080002FEA5
:101C1000808080F880808080FE070A0A080002FE2B
:101C2000808080F88080808080070A0A080002FE99
:101C30008080809E82828282FE070A0A08000282D9
:101C4000828282FE8282828282010A0A08030280E4
:101C5000808080808080808080070A0A0800021EC1
:101C600002020202028282827C070A0A08000282C1
:101C7000848890E0A090888482070A0A0800028085
:101C80008080808080808080FE070A0A08000282AF
:101C9000C6AA92828282828282070A0A080002C24F
:101CA000C2A2A292928A8A8686070A0A0800027C49
:101CB00082828282828282827C070A0A080002FE75
:101CC000828282FE8080808080070A0A0800027873
:101CD00084848484848484847E070A0A080002FE43
:101CE000828282FEA090888482070A0A080002FE8F
:101CF00080808080FE020202FE070909080003FEC0
:101D00001010101010101010070A0A08000282822A
:101D100082828282828282FE070A0A08000282820E
:101D20008244446C28281010070A0A0800028282A4
:101D30008282829292AAAAC6070A0A0800028244F4
:101D40004428101028444482070A0A0800028282AC
:101D50008282FE1010101010070A0A080002FE020C
:101D6000060C183060C080FE040A0A070002F080EA
:101D700080808080808080F0060A0A070002804010
:101D80004020201010080804040A0A070202F0107C
:101D900010101010101010F0050303070109205057
:101DA00088060101070002FC02020207020A8040C5
:101DB000000000070001000000070001000000070C
:101DC0000001000000070001000000070001000002
:101DD00000070001000000070001000000070001EB
:101DE00000000007000100000007000100000007DC
:101DF00000010000000700010000000700010000D2
:101E000000070001000000070001000000070001BA
:101E100000000007000100000007000100000007AB
:101E200000010000000700010000000700010000A1
:101E3000000700010000000700010000000700018A
:101E4000000000070001000000070001000000077B
:101E50000001000000070001000000070001000071
:101E60000007000100000007000100090A00FE054C
:101E7000016B02C320FFFE08FE06FE000000020008
:101E8000000107070200FF8080808080008003023D
:101E900002040004A0A005050506000050F850F853
:101EA000500507070600FF2078A07028F0200505E0
:101EB00005060000C8D0205898050505060000203A
:101EC0005068906801020202000480800307070442
:101ED00000FF204080808040200307070400FF802F
:101EE000402020204080030303050101A040A005FD
:101EF00005050600002020F820200202020300FF52
:101F00004080050101060002F80101010200008085
:101F1000030505050100202040808004050505001B
:101F200000609090906002050503000040C04040B2
:101F30004005050506000070883040F805050506D7
:101F40000000F0087008F00505050600003050900C
:101F5000F810050505060000F880F008F0050505F5
:101F60000600007880F08870050505060000F80876
:101F70001020400505050600007088708870050572
:101F80000506000070887808F00103030200018054
:101F90000080010404020000800080800505050621
:101FA00000001860806018050303060001F800F8BF
:101FB000050505060000C0300830C005070706000B
:101FC000FF708810202000200707070800FF7C8290
:101FD0009AAABE807C050505060000708888F888EE
:101FE000050505060000F088F088F00505050600E7
:101FF000007088808870050505060000F0888888D4
:10200000F0050505060000F880F080F805050506D6
:102010000000F880F080800505050600007080B89B
:1020200088700505050600008888F888880305057E
:10203000040000E0404040E00505050600000808F7
:102040000888700505050600008890E09088050561
:102050000506000080808080F805050506000088E0
:10206000D8A8888805050506000088C8A8988805AE
:1020700005050600007088888870050505060000C3
:10208000F08888F08005050506000070888898783B
:10209000050505060000F08888F08805050506009E
:1020A0000078807008F0050505060000F820202063
:1020B0002005050506000088888888700505050646
:1020C0000000888888502005050506000088A8A81B
:1020D000A850050505060000885020508805050514
:1020E0000600008888502020050505060000F8102D
:1020F0002040F80206060300FFC080808080C003F5
:10210000050504000080804020200206060300FF31
:10211000C040404040C003020204000440A005014A
:10212000010600FFF80202020300048040040404D8
:10213000050000709090F004050505000080E09017
:1021400090E004040405000070808070040505051B
:10215000000010709090700404040500006090E08E
:10216000700405050500003040F0404004060605F7
:1021700000FE709090F010E004050505000080E07E
:102180009090900105050200008000808080020789
:10219000070300FE40004040404080040505050064
:1021A000008090A0E0900105050200008080808002
:1021B00080060404070000A8D494940404040500D5
:1021C00000A0D0909004040405000060909060048A
:1021D00006060500FEE09090E080800406060500FB
:1021E000FE709090701010040404050000B0C080D0
:1021F0008004040405000070C030E00405050500FB
:102200000040F040403004040405000090909070BD
:102210000504040600008888502005040406000018
:102220008888A850040404050000906060900406AB
:10223000060500FE9090907010E004040405000074
:10224000F02040F00306060400FF604080804060FC
:102250000106060200FF808080808080030606045D
:1022600000FFC040202040C005030306000140A835
:1022700010FFFFFFFFFFFFFFFFFFFFFFFFFFFFFF5D
:10228000FFFFFFFFFFFFFFFFFFFFFFFFFFFFFFFF5E
:10229000FFFFFF0107070200FF8000808080808031
:1022A00003050504000040E080E040050606060046
:1022B00000708848E040F805050506000088705069
:1022C0007088050606060000885020707020010501
:1022D0000502000080800080800407070500FE7072
:1022E0008060906010E0030101040006A00707076A
:1022F0000800FF7C82BAA2BA827C030404040004B2
:1023000060E0A06006050507000024489048240509
:102310000303060002F80808030101050102E007B3
:1023200007070800FF7C82BAB2AA827C0501010679
:102330000006F8040404050003609090600305059E
:1023400005010040E04000E0040505050002609042
:102350002040F0040505050002E0106010E00202D4
:102360000203000540800506060600FE8888D8A8FE
:1023700080800607070700FE7CE8E8682828280315
:102380000303050101E0E0E00303030501FE402033
:10239000E002050503000240C04040400405050579
:1023A00000026090909060060505070000904824A8
:1023B00048900708080800FE42C44850264A8E028A
:1023C0000708080800FE42C448502C42840E070843
:1023D000080800FEE24428D0264A8E0205070706B8
:1023E00000FF2000202048887005080806000040F3
:1023F0002000708888F88805080806000010200072
:10240000708888F888050808060000205000708849
:1024100088F888050808060000285000708888F8A9
:10242000880507070600005000708888F8880508AE
:1024300008060000205020708888F88809050A0ADC
:1024400000003F8048008F00F8008F8005070706D6
:1024500000FE708880887010700508080600004033
:102460002000F880F080F805080806000010200021
:10247000F880F080F8050808060000205000F88079
:10248000F080F80507070600005000F880F080F89B
:10249000030808040000804000E0404040E00308DA
:1024A00008040000204000E0404040E00308080429
:1024B000000040A000E0404040E0030707040000A7
:1024C000A000E0404040E00505050600007048E837
:1024D000487005080806000028500088C8A8988899
:1024E00005080806000040200070888888700508EC
:1024F000080600001020007088888870050808060B
:1025000000002050007088888870050808060000C8
:1025100040A81070888888700507070600005000E2
:102520007088888870030303040001A040A005059B
:10253000050600007898A8C8F005080806000040C5
:102540002000888888887005080806000010200090
:102550008888888870050808060000205000888850
:1025600088887005070706000050008888888870F2
:102570000508080600001020008888502020050566
:102580000506000080F088F0800405050500006065
:1025900090A090A0040707050000402000709090D4
:1025A000F0040707050000204000709090F0040739
:1025B00007050000205000709090F0040707050008
:1025C0000050A000709090F0040606050000500036
:1025D000709090F004070705000020502070909044
:1025E000F0070505080000EC127E90EE04060605D3
:1025F00000FE708080702060040707050000402006
:10260000006090E070040707050000204000609023
:10261000E0700407070500002050006090E070049F
:10262000060605000050006090E0700207070300F6
:102630000080400040404040020707030000408007
:10264000008080808003070704000040A000404015
:102650004040030606040000A0004040404004063D
:1026600006050000402070909060040707050000F8
:1026700050A000A0D0909004070705000040200063
:102680006090906004070705000020400060909073
:1026900060040707050000609000609090600407E8
:1026A0000705000050A00060909060040606050039
:1026B000005000609090600505050600002000F8BD
:1026C000002004040405000070B0D0E004070705F2
:1026D0000000402000909090700407070500002043
:1026E0004000909090700407070500002050009073
:1026F00090907004060605000050009090907004C1
:1027000008080500FE20400090907010E0040606C6
:102710000500FE80E09090E0800407070500FE5071
:102720000090907010E06021632C11241FBECFEF49
:10273000D8E0DEBFCDBF12E0A0E0B1E0E4E9F5E60D
:1027400002C005900D92A432B107D9F724E0A4E2AB
:10275000B2E001C01D92A53CB207E1F713E1C4E964
:10276000D3E104C02197FE010E949230C339D10702
:10277000C9F70E948D230C94BD320C94000008957B
:1027800080E0089520918B0430918C04281739073C
:1027900099F190938C0480938B04009739F12091E8
:1027A0009E04FC01211129C03596E491E0939F0419
:1027B0000C96FC0184918093A00480919F04082EC4
:1027C000000C990B2091A004821B910927FD939581
:1027D0002091A104203441F0829FC001112426E001
:1027E000969587952A95E1F78093A20480EC93E172
:1027F00090939D0480939C040895213031F43F967A
:10280000E491E0939F044096D4CF3D96E491E09309
:102810009F040E96CECF0895DB0114964D915C91E6
:1028200015976D917C91DC01ED91FC910280F38113
:10283000E02D0994AF92BF92CF92DF92EF92FF9278
:102840000F931F93CF93DF936C017B018B01040FD8
:10285000151FEB015E01AE18BF08C017D10759F074
:102860006991D601ED91FC910190F081E02DC601B6
:102870000995892B79F7C501DF91CF911F910F91B0
:10288000FF90EF90DF90CF90BF90AF900895FC0144
:10289000538D448D252F30E0842F90E0821B930BC5
:1028A000541710F0CF96089501970895FC01918D6B
:1028B000828D981761F0A28DAE0FBF2FB11D5D966E
:1028C0008C91928D9F5F9F73928F90E008958FEF10
:1028D0009FEF0895FC01918D828D981731F0828DC4
:1028E000E80FF11D858D90E008958FEF9FEF08951B
:1028F000FC01918D228D892F90E0805C9F4F821B7F
:1029000091098F739927089582E093E00E947814CB
:1029100021E0892B09F420E0822F089580E090E0E7
:10292000892B29F00E94841481110C9400000895D1
:10293000FC01A48DA80FB92FB11DA35ABF4F2C9134
:10294000848D90E001968F739927848FA689B7892B
:102950002C93A089B1898C91837080648C93938D22
:10296000848D981306C00288F389E02D80818F7DC5
:1029700080830895EF92FF920F931F93CF93DF937D
:10298000EC0181E0888F9B8D8C8D98131AC0E889AB
:10299000F989808185FF15C09FB7F894EE89FF897A
:1029A0006083E889F98980818370806480839FBF18
:1029B00081E090E0DF91CF911F910F91FF90EF9018
:1029C0000895F62E0B8D10E00F5F1F4F0F73112728
:1029D000E02E8C8D8E110CC00FB607FCFACFE88963
:1029E000F989808185FFF5CFCE010E949814F1CF3F
:1029F000EB8DEC0FFD2FF11DE35AFF4FF0829FB7D7
:102A0000F8940B8FEA89FB8980818062CFCFCF93C6
:102A1000DF93EC01888D8823B9F0AA89BB89E88906
:102A2000F9898C9185FD03C0808186FD0DC00FB6AC
:102A300007FCF7CF8C9185FFF2CF808185FFEDCF2A
:102A4000CE010E949814E9CFDF91CF9108952FB75E
:102A5000F8946091E9027091EA028091EB02909102
:102A6000EC022FBF0895CF93DF93EC018A859B85FD
:102A7000AC85BD858E839F83A887B9870E94271563
:102A80006A837B838C839D8381E089838883DF9144
:102A9000CF910895CF93DF93EC018E819F81A8851C
:102AA000B9858A839B83AC83BD830E9427156A877F
:102AB0007B878C879D8781E089838883DF91CF9195
:102AC00008952091EF023091F0022817390771F430
:102AD0009091ED028091EE02981741F0E091ED02A5
:102AE000F0E0EC55FD4F808190E008958FEF9FEF6F
:102AF00008950895EF92FF920F931F93CF93DF9362
:102B0000DC015C96ED90FC905D97E114F10479F4A2
:102B100081E090E013969C938E93129790E080E072
:102B2000DF91CF911F910F91FF90EF9008955196F3
:102B3000ED91FC91529750968C915097982F9095CB
:102B40000FB75E962C915E97122F127021FD609543
:102B5000F8942081112319F1282B2083E701219774
:102B6000F1F728E0462F50E0308160FF1AC0382B83
:102B70003083E7012197F1F7BA01759567952150E8
:102B800089F7112381F08081892380830FBF5C96B0
:102B90008D919C910197F1F781E090E0C1CF2923BD
:102BA000DCCF3923E5CF9081892BEFCF2091EF0245
:102BB0003091F0022817390771F48091EE022091CC
:102BC000ED0290E0805C9F4F821B910960E470E011
:102BD0000E947E30089590E080E008952091EF02F9
:102BE0003091F00228173907B9F49091ED028091E5
:102BF000EE02981789F0E091ED02F0E0EC55FD4F00
:102C000080812091ED0230E02F5F3F4F2F733327FB
:102C10002093ED0290E008958FEF9FEF0895DC017F
:102C20001696ED91FC91179712968C91481B477060
:102C300081E090E001C0880F4A95EAF7E60FF11DA8
:102C40003081222319F0832B80830895809583237C
:102C5000FBCFFB014181DC0112962C9112974217A8
:102C600068F013962C911397241740F06081159605
:102C70002C91621718F424810C940F160895FC010E
:102C800080819281980F92832181921760F49481C0
:102C90009F5F94839381890F821710F08FEF820FCB
:102CA000838381E0089580E00895FC011282808191
:102CB0008150838314820895DB01ED91FC91099486
:102CC0000F931F93CF93DF931F92CDB7DEB7009181
:102CD000890410918A04E091B804F091B90482E06B
:102CE000099530E020E04AE0B80187E894E00E94CE
:102CF0005C16182FE091B804F091B90483E00995AF
:102D0000E091B804F091B90480E009951123B9F17C
:102D10006091890470918A049E012F5F3F4F46E4C1
:102D200087E894E00E945C16898180938704609113
:102D3000890470918A049E012F5F3F4F47E487E822
:102D400094E00E945C1689818093880460918904D4
:102D500070918A0430E020E048E487E894E00E9423
:102D60005C16809392046091890470918A042AEB26
:102D700034E047E187E894E00E945C1611E0812F7F
:102D80000F90DF91CF911F910F910895962FE3E857
:102D9000F4E06681778180A391A323EA34E042E3E3
:102DA00087E894E00C945C160F931F93CF93DF9306
:102DB000162FD42F622F611BC22FC81B013061F464
:102DC000840F0E94C6166C2F812F8D0FDF91CF913B
:102DD0001F910F910C94C616942F981B892F0E9457
:102DE000C6166C2F8D2F811BF1CFCF92DF92EF9201
:102DF000FF920F931F93CF93DF93E82ED62EC42F0D
:102E0000C22ED1E0D41BF42EF194FF0C022F262FFA
:102E1000482F6C2F80E00E94D41610E01C1748F059
:102E2000DF91CF911F910F91FF90EF90DF90CF90A6
:102E30000895D7FD04C0C150F394F394DF0D1F5FD4
:102E4000812F880F8F5FD80F0C2D2D2D4E2D6C2FBD
:102E5000812F0E94D416E2CF0B96FC018491089535
:102E60000A96FC0184910895FC01849108950E94C2
:102E70003417882321F0823011F083E0089586E032
:102E80000895FC01E60FF11D849190E0982F8827AA
:102E90003196E4918E0F911D089568E00C944117CE
:102EA00066E00C9441172EE93FE0009709F408957D
:102EB000F9013197F1F70197F8CFCF93DF9300D065
:102EC000CDB7DEB720ED37E03A8329839091BC007F
:102ED000982311F081E00FC029813A81232B81F4DE
:102EE0008091010381FDF6CF8091000381110DC017
:102EF00091E0909300030F900F90DF91CF91089590
:102F000029813A8121503109DFCF80E0F4CF84EA72
:102F10008093BC0061E080E80E945D17811102C0CF
:102F200080E008958091B900887F883051F0803129
:102F300041F0809100038111F3CF82E08093000380
:102F4000EFCF88E78093BB0084E88093BC0062E009
:102F500080E80E945D17882319F38091010381FDA9
:102F600005C08091B900887F883119F781E0089504
:102F700084E98093BC0064E080E10C945D17809349
:102F8000BB0084E88093BC0063E080E80E945D178A
:102F90008823A1F08091010381FD0DC08091B900CB
:102FA000887F883241F080910003811106C092E051
:102FB00090930003089581E0089580E008951092B1
:102FC00000030895809301031092B90084FF05C0A7
:102FD0008CE08093B8000C94DF1788E4FACFCF938D
:102FE000DF93FC0123A5222389F0EC010E948717BF
:102FF000811104C080E0DF91CF9108958EA18111ED
:1030000007C00E94BF178823A9F31BA681E0F3CF56
:1030100080E4F7CF0F931F93CF93DF93C62FD42F66
:103020008901633001F138F4613099F0623009F4BC
:1030300049C0C1E012C0663029F1673091F16530B6
:10304000C1F70E94EF17811117C00E94B817C0E0A6
:1030500004C0FC0186A50E94E2178C2FDF91CF915E
:103060001F910F910895FC0116A221E023A74111A1
:10307000E0CF0E94B817DDCF8D2F0E94BF178111BE
:10308000D8CFE3CF0E94EF178823F9F2DD2389F22E
:10309000F80181918F010E94BF178823B1F2D150AE
:1030A000F5CF0E94EF17882381F2DD2311F2F8019A
:1030B00084910E94BF17C82F882379F20F5F1F4F9A
:1030C000D150F3CFFC0146A321E023A7B2CFDB010F
:1030D0001496ED91FC9130E020E065E00994DB016D
:1030E0001496ED91FC9130E020E062E00994DB0160
:1030F0001496ED91FC9130E020E063E00994CF92CA
:10310000DF92EF92FF920F931F93CF93DF938C0187
:103110007B016A0180E0F601C491811110C081E059
:10312000CF3F49F04C2FB701C8010E946718882390
:1031300009F444C080E0BFEFCB1ADB0AECCF4FEFBD
:10314000CF3F89F3CE3FD9F1C03FA0F7C03E38F062
:103150004C2F4F70B701C8010E946F18EBCFC03DD4
:1031600038F04C2F4F70B701C8010E947718E2CF9A
:10317000C03CF8F0D7011496ED91FC9130E020E0CE
:1031800040E064E0C8010995C295C07FCE5FD0E001
:10319000CE010E945317D7011496ED91FC9130E0B7
:1031A00020E041E064E0C8010995CE010E94531778
:1031B000C1CFC7FDBFCF8C2F90E0F8CF80E0DF916B
:1031C000CF911F910F91FF90EF90DF90CF900895D6
:1031D000AF92BF92CF92DF92FF920F931F93CF9344
:1031E000DF936C018B01F42EE90180E1481709F4AB
:1031F0007EC0841778F1AAE04A1709F461C0BFE0E5
:103200004B1709F47FC0F80102811381F2E3FF1626
:1032100009F4DDC0FF1508F48EC085E1F81609F445
:10322000DBC0A7E1FA1609F4ECC0B4E1FB1265C0FB
:10323000D8011696ED91FC91179715968C918E0FEB
:103240009F2F911D11928E179F07E1F7C8010E94D1
:10325000551653C0E1E14E1709F451C0F5E14F1383
:10326000D2CFFB01A280B3804AE950E0C6010E94A0
:103270007F18D50114964C91406BB801C6010E948D
:10328000671841E0B801C6010E946F18F501268158
:103290003781D8011496ED91FC91D50115964C918A
:1032A00066E0C601099581111CC080E0DF91CF91D5
:1032B0001F910F91FF90DF90CF90BF90AF90089536
:1032C000DB011496ED91FC9130E020E042E061E0FA
:1032D000C601099542EA50E0B801C6010E947F1874
:1032E00092CF40E0B801C6010E9477188CCF41E927
:1032F00050E0B801C6010E947F1881E0D7CF46E8B0
:1033000050E0F7CF41E0C6010E94771840E0B801D5
:10331000C6010E946F1841E8B801C6010E946718F3
:103320004881B801C6010E94671840E0B801C60193
:103330000E947718E2CFE6E4FE1609F46CC0F7E4C9
:10334000FF1609F46DC08BE3F812D7CF99818B81FA
:1033500038E0390F813031F0833011F0392F02C05D
:10336000392F985021E0D80113964C91491708F451
:1033700020E041E0391708F040E091E0F801528187
:10338000351708F490E0322F342B932319F42423BB
:1033900009F4B3CFFA80D12CC12C843048F490E0EA
:1033A000FC01E85EFE4FC0808C5E9E4FDC01DC902D
:1033B000F7FE04C0BE01C8010E94291688818C0D49
:1033C000888389818D0D8983FF0C91F796CFBE018B
:1033D000C8010E94291691CFC8010E943F16882378
:1033E00009F463CFD8011696ED91FC9117971596C5
:1033F0008C918E0F9F2F911D11928E179F07E1F7D1
:103400007CCF1882F80182818983858181508A83EB
:1034100083818B8372CFD80115968C9188836DCF71
:10342000F8018181FBCF0F93FC010150040F84A9A7
:1034300096A9941788F0081710F4041778F421500F
:10344000260F83A995A9961758F0281760F481E0F4
:10345000261720F40F910895081778F780E0FACF27
:103460002817A8F7FBCF81E0F5CFDF92EF92FF920C
:103470000F931F93CF93DF93182FF62EC42F042F93
:1034800021E0462F682F87E894E00E94131A8823D2
:1034900009F452C0DC2F0F2D0C0FEE24E394DD2431
:1034A000DA9414C06091890470918A041093A30483
:1034B0008093A404E092A604D092A50423EA34E009
:1034C0004BE387E894E00E945C16D850802F8D1B58
:1034D000D83040F74C2F487F4F0D8C2F869586951E
:1034E000869598EF899FC00D1124CC2329F187E0A0
:1034F000C8276091890470918A041093A3044093B3
:10350000A40481E08093A604CF5FC7708FEF90E0A2
:1035100001C0880FCA95EAF78093A50423EA34E036
:103520004BE387E894E0DF91CF911F910F91FF90DB
:10353000EF90DF900C945C16DF91CF911F910F916B
:10354000FF90EF90DF900895FF920F931F93CF931A
:10355000DF93D62F142F41E0460F622F6D1BFF24FF
:10356000F394F80EC22FC81B013071F4810F0E9432
:10357000351A4F2D6C2F8D2F810FDF91CF911F9119
:103580000F91FF900C94351A912F981B892F0E9450
:10359000351A4F2D6C2F812F8D1BEFCFCF92DF92DD
:1035A000EF92FF920F931F93CF93DF93E82ED62EC7
:1035B000C42E042F262F482F65E080E00E94A41A15
:1035C000C0E015E086EFF82EDCEFCF5F8C2F880F80
:1035D0008F5FD80F0C2D2D2D4E2D612F8C2F0E941B
:1035E000A41AC11748F0DF91CF911F910F91FF905E
:1035F000EF90DF90CF900895D7FDE7CF1150F3946F
:10360000F394DF0DE2CF0F931F93CF93DF93C82F77
:10361000D62F142F4AEF460F6AEF680F0CE02CE00C
:1036200087E894E00E94131A882349F0412F6D2FF8
:103630008C2FDF91CF911F910F910C94CE1ADF91B7
:10364000CF911F910F910895FF920F931F93CF93E6
:10365000DF93C82FD62F142FF22E81E0840F282F4E
:10366000220F462F481B6C2F681B022F87E894E01F
:103670000E94131A882359F02F2D412F6D2F8C2F64
:10368000DF91CF911F910F91FF900C94F516DF9170
:10369000CF911F910F91FF9008955F926F927F924B
:1036A0008F929F92AF92BF92CF92DF92EF92FF9252
:1036B0000F931F93CF93DF93EC01C62E142FD22EBE
:1036C000EC80FD80C7010E943417082F8C819D81FA
:1036D0000E943717982EAA24AA94013011F48FE083
:1036E000A82E8C819D810E943017082F8C819D818E
:1036F0000E942C17B82E8C819D810E944D1720E6C8
:103700002D1570F4009761F0E80EF91E01E6BD1466
:10371000C0F4188A1B8A1C8A198A1A8A80E05AC047
:103720008C819D810E945017E0E4ED1530F40097E4
:1037300021F0E80EF91E01E4EACFF1E1EF0EF11CF1
:10374000E6CFB01630F3892D90E0F70124912F3F9A
:1037500039F4FFEFEF1AFF0AB016D9F20F5FF5CF79
:10376000D0125FC08C819D810E94341797012F5F1A
:103770003F4FF701882319F0823009F03BC0849154
:103780008B8BF90124912C8BF7013396E491E88B14
:10379000F7013496E491E98BF7013596E491EA8BD1
:1037A000E114F10409F4BACF8C819D810E9437178E
:1037B000A82EDB88BC888989C80E1B198A89181B2A
:1037C0000B2D2D2D412F6C2DCE010E94131A81112E
:1037D00031C08889DF91CF911F910F91FF90EF90B9
:1037E000DF90CF90BF90AF909F908F907F906F9021
:1037F0005F9008958491982F9F7092509A8B829534
:103800008F70898BF9012491822F8F708C8B229578
:103810002F702B8BF7013296E491E295EF70E88BD5
:10382000BFCF3296E491EA21E80FF92FF11DEE0E99
:10383000FF1E92CFEA0CF11CF7E0DF0ED694D6946F
:10384000D694012F0B0D4E012CE1820E911C6D2C94
:10385000712C101709F4BDCF5C2C570112C0F50173
:1038600084916A817B815C8E1D8F1F8E8E8F940167
:103870004BE3CE010E945C16FFEFAF1ABF0A28E0AF
:10388000520E8A2D8E198D1550F3E60CF71C1F5F12
:10389000E0CFEF92FF920F931F93CF93DF93F82E19
:1038A000062FE42E152FE0919C04F0919D0487E8EB
:1038B00094E00995080FCE2DD12F10E02991211108
:1038C00008C0812FDF91CF911F910F91FF90EF9052
:1038D0000895402F6F2D87E894E00E944D1BF80E4D
:1038E000180FECCFDF92EF92FF920F931F93CF93BD
:1038F000DF93EC01D62E1CAD0BAD7C0184E0E80E0D
:10390000F11CE98DFA8DC7010995412F480F2D2D26
:10391000602FC7010E944D1B9BAD890F8BAF81E0CB
:1039200090E0DF91CF911F910F91FF90EF90DF908A
:10393000089590E080E00895FB0101900020E9F7F0
:103940003197AF01461B570BDC01ED91FC910280D2
:10395000F381E02D09948F929F92AF92BF920F93C3
:103960001F93CF93DF93CDB7DEB7A1970FB6F8942F
:10397000DEBF0FBECDBF19A2423008F44AE08E016F
:103980000F5D1F4F842E912CB12CA12CA501940109
:103990000E94892EE62FB901CA01EA3004F5E05DE4
:1039A000D801EE938D01232B242B252B79F790E062
:1039B00080E0109729F0BD0183E894E00E949C1CF0
:1039C000A1960FB6F894DEBF0FBECDBFDF91CF91A9
:1039D0001F910F91BF90AF909F908F900895E95CD9
:1039E000DFCF4F925F926F927F928F929F92AF92B2
:1039F000BF92CF92DF92EF92FF920F931F93CF93DC
:103A00006B017C01742EAC019B010E94203068EA9E
:103A100071E0811126C046015701E894B7F82FEFF5
:103A20003FEF4FE75FE7C501B4010E9420308111ED
:103A30000CC02FEF3FEF4FE75FE7C501B4010E94D5
:103A4000FC2C6CEA71E0181664F02FEF3FEF4FE7A3
:103A50005FE4C701B6010E9413301816ACF460EBA6
:103A600071E083E894E0CF911F910F91FF90EF9068
:103A7000DF90CF90BF90AF909F908F907F906F908E
:103A80005F904F900C949C1C2FEF3FEF4FE75FEC43
:103A9000C701B6010E94FC2C87FDE1CF20E030E099
:103AA000A901C701B6010E94FC2C10E000E087FFCD
:103AB0000AC06DE283E894E00E94721C8C01F7FA60
:103AC000F094F7F8F094C0E060E070E080E09FE3ED
:103AD0007C1641F020E030E040E251E40E942C2FBF
:103AE000CF5FF6CFA70196010E94BB2E2B013C01B0
:103AF0000E94A52F4B015C014AE00E94AB1C7C0197
:103B0000E00EF11ECC23C1F1C501B4010E94012DCC
:103B10009B01AC01C301B2010E94BA2E4B015C01B2
:103B20006EE283E894E00E94721CE80EF91EC15018
:103B300018F120E030E040E251E4C501B4010E94F8
:103B4000622D2B013C010E94A52F4B01B12CA12C11
:103B50004AE0C501B4010E94AB1CE80EF91EC50184
:103B6000B4010E94012D9B01AC01C301B2010E946E
:103B7000BA2E4B015C01DBCFC701CF911F910F9192
:103B8000FF90EF90DF90CF90BF90AF909F908F907D
:103B90007F906F905F904F9008952F923F924F9239
:103BA0005F926F927F928F929F92AF92BF92CF92CD
:103BB000DF92EF92FF920F931F93CF93DF93D82F53
:103BC000C92F8B010E948B2C24E630E040E050E0AE
:103BD0000E94892E49019B01AC0160E876E988E9E1
:103BE00090E00E946E306B017C01F801918280822E
:103BF000ED2FFC2F2191822F022E000C990BC097E4
:103C00000A97C0F32E3239F51F0180E8882E86E925
:103C1000982E88E9A82EB12C9AE0492E512C612CBF
:103C2000712CF101C1911F010C2E000CDD0BE097EE
:103C3000CA30D10580F4C501B401A30192010E94EC
:103C4000892E49015A01DE010E944A2EC60ED71E56
:103C5000E81EF91EE6CFA5E0B0E0A70196010E949C
:103C60003F2E6F5F7F4F8F4F9F4F23E030E040E04C
:103C700050E00E94892EF8012283338344835583C8
:103C80001682DF91CF911F910F91FF90EF90DF90FF
:103C9000CF90BF90AF909F908F907F906F905F90EC
:103CA0004F903F902F9008951F93CF93DF93EC0197
:103CB00018811D3209F42196CE010E948B2C9B01A4
:103CC000AC01A4E6B0E00E943F2EAB01BC01FE01B6
:103CD0002991822F022E000C990BC0970A97B8F3F6
:103CE0002E3231F58181082E000C990BC0978A3055
:103CF0009105F0F4AAE0A89F9001A99F300D11242E
:103D0000C901330FAA0BBB0B480F591F6A1F7B1F3A
:103D10008281082E000C990BC0978A30910540F4DF
:103D2000092E000CAA0BBB0B480F591F6A1F7B1FE3
:103D30001D3239F470956095509541955F4F6F4FE6
:103D40007F4FCB01BA01DF91CF911F9108950F935F
:103D50001F93CF93DF938C01EB01FC018081918154
:103D60000097E1F06881798161157105A9F04281C0
:103D700053812C813D814217530770F00E94A73276
:103D80008C819D81F801958384831D821C82DF9143
:103D9000CF911F910F9108950E944F318881998191
:103DA000F801918380838A819B81938382838C81B4
:103DB0009D8195838483198218821B821A82E5CFA4
:103DC000CF93DF93EC0188819981009711F00E94D5
:103DD0004F31198218821D821C821B821A82DF9148
:103DE000CF910895FC0180819181009711F00C948E
:103DF0004F3108950F931F93CF93DF93EC01888188
:103E00009981009759F02A813B812617370730F0B6
:103E100081E0DF91CF911F910F9108958B016F5F2A
:103E20007F4F0E94D831009759F0998388831B8374
:103E30000A832C813D81232B59F7FC011082E8CFA6
:103E400080E0E7CF0F931F93CF93DF93EC010C81BA
:103E50001D810F5F1F4FB8010E94FA1E882391F049
:103E6000288139818C819D8164EB71E0820F931FE1
:103E70000E94A7321D830C83CE01DF91CF911F9149
:103E80000F910895CE010E94E01EF6CFEF92FF92AF
:103E90000F931F93CF93DF93EC01FB01E080F18040
:103EA000E114F10411F10481158101151105A9F046
:103EB0008C819D81080F191FB801CE010E94FA1E46
:103EC000882399F0288139818C819D81B701820FE7
:103ED000931F0E94A7321D830C83CE01DF91CF91E7
:103EE0001F910F91FF90EF900895CE010E94E01E68
:103EF000F4CFEF92FF920F931F93CF93DF93EC01D8
:103F00007B018A01BA010E94FA1E81110BC0CE0109
:103F10000E94E01ECE01DF91CF911F910F91FF9083
:103F2000EF9008951D830C83B701888199810E94C9
:103F3000A732F0CFEF92FF920F931F93CF93DF93AF
:103F4000CDB7DEB762970FB6F894DEBF0FBECDBF18
:103F50008C01CB01F801118210821382128215822A
:103F600014824AE09E012F5F3F4F7901B9010E9400
:103F7000B22CF70101900020E9F73197AF014E19FB
:103F80005F09B701C8010E94791F62960FB6F894C5
:103F9000DEBF0FBECDBFDF91CF911F910F91FF907C
:103FA000EF900895CF93DF93EC01FB0186179707FD
:103FB00049F0608171816115710541F0448155813D
:103FC0000E94791FCE01DF91CF9108950E94E01EDB
:103FD000F9CFFC01118210821382128215821482A1
:103FE000FB0101900020E9F73197AF01461B570B09
:103FF0000C94791F1F920F920FB60F9211242F93DA
:104000003F934F935F936F937F938F939F93AF9360
:10401000BF93EF93FF9382E093E00E949814FF9187
:10402000EF91BF91AF919F918F917F916F915F9130
:104030004F913F912F910F900FBE0F901F901895A9
:104040001F920F920FB60F9211242F938F939F936D
:10405000EF93FF93E0911203F09113038081E091BD
:104060001803F091190382FD1BC0908180911B03FE
:104070008F5F8F7320911C03821741F0E0911B0327
:10408000F0E0EE5FFC4F958F80931B03FF91EF9163
:104090009F918F912F910F900FBE0F901F901895A9
:1040A0008081F4CF1F920F920FB60F9211242F939D
:1040B0003F938F939F93AF93BF938091E902909129
:1040C000EA02A091EB02B091EC023091E80223E009
:1040D000230F2D3758F50196A11DB11D2093E8023D
:1040E0008093E9029093EA02A093EB02B093EC0272
:1040F0008091E4029091E502A091E602B091E7027E
:104100000196A11DB11D8093E4029093E502A09356
:10411000E602B093E702BF91AF919F918F913F91DB
:104120002F910F900FBE0F901F90189526E8230F28
:104130000296A11DB11DD2CF1F920F920FB60F9202
:1041400011242F933F934F935F936F937F938F939C
:104150009F93AF93BF93EF93FF93E091EF02F091A2
:10416000F002309749F0A685B7858585968D91FF39
:1041700014C09C918923A1F4FF91EF91BF91AF915D
:104180009F918F917F916F915F914F913F912F916F
:104190000F900FBE0F901F9018959C91892361F787
:1041A000A389B4899C918589809589238C9386897C
:1041B00097890197F1F7608D718DA685B785558533
:1041C00038E020E0CB010197F1F7822F90E0959540
:1041D0008795282F4C91452309F02068315091F79D
:1041E000868D81FD20958091EE0290E001968F737F
:1041F00099273091ED02381799F0A091EE02B0E0C6
:10420000AC55BD4F2C938093EE02828D938D019718
:10421000F1F7A389B4898C919589892B8C93ACCFC4
:10422000868D8160868FF1CF90E0FC01E853FF4FCF
:104230002491FC01E25FFE4F3491FC01E650FF4FF8
:10424000E491EE23C9F0222339F0233001F1A8F4E0
:10425000213019F1223029F1F0E0EE0FFF1FE0517B
:10426000FF4FA591B4918FB7F894EC91611126C0DE
:1042700030953E233C938FBF08952730A9F0283016
:10428000C9F0243049F7809180008F7D03C0809170
:1042900080008F7780938000DFCF84B58F7784BDD7
:1042A000DBCF84B58F7DFBCF8091B0008F7780937B
:1042B000B000D2CF8091B0008F7DF9CF3E2BDACF06
:1042C0000F931F93CF93DF93109205031092040373
:1042D00088EE93E0A0E0B0E080930603909307039C
:1042E000A0930803B09309038CE791E09093030334
:1042F0008093020385EC90E090930F0380930E036C
:1043000084EC90E0909311038093100380EC90E094
:10431000909313038093120381EC90E09093150324
:104320008093140382EC90E090931703809316031C
:1043300086EC90E0909319038093180310921B036E
:1043400010921C0310921D0310921E0310928604FB
:104350001092850480EA91E0909384048093830412
:104360001092BE041092BF041092C00410928C04EC
:1043700010928B0410928E0410928D04109290046F
:1043800081E080938F0482E28093910410929604DE
:1043900010929504EAEAF4E08FEF819394E0E83B11
:1043A000F907D9F7C1E0C093A70480EC93E190939B
:1043B0009D0480939C04C0939E0410929F041092CD
:1043C000A00480E48093A1041092A2048FEB93E1F7
:1043D0009093B9048093B80488E091E090938A04A4
:1043E000809389041092B5040E94601680EA91E0DF
:1043F000909384048093830410926704109266045F
:1044000088EE93E0A0E0B0E08093680490936904A4
:10441000A0936A04B0936B048EE891E090936504D6
:104420008093640410927B0410927A0410927D04AD
:1044300010927C0410927F0410927E0410928104EA
:1044400010928004809182048E7F8D7F80938204FD
:1044500081FB662760F96C2783E00E94142141E10B
:1044600051E0FA0164918DEF90E0FC012491222348
:1044700099F030E0220F331FF901EA51FF4FA59167
:10448000B491F901E051FF4F259134912FB7F89481
:104490003C91632B6C932FBFFA01449140937404B9
:1044A000FC018491E82FF0E0EE0FFF1FE051FF4F79
:1044B00085919491909376048093750402E111E0C4
:1044C000F8012491CEEFD0E0FE0184918823C9F059
:1044D00090E0880F991FFC01EA51FF4FA591B4911C
:1044E000FC01E051FF4F459154913FB7F8949C91E6
:1044F000822F809598239C93FA0190818923808351
:104500003FBF8091820481FD04C061E084E00E948D
:10451000142184E080937004F801049100937104E5
:10452000FE01C491EC2FF0E0EE0FFF1FE452FF4FAD
:104530008591949190937304809372041092B703C1
:104540001092B8031092BA031092B9031092BB03F1
:104550001092BC031092BD031092BE031092BF03D1
:104560001092C1031092C0031092C2031092C303B1
:104570001092C4031092C5031092C6031092C80390
:104580001092C7031092C9031092CA031092CB0372
:104590001092CC031092CD031092CF031092CE0351
:1045A0001092D0031092D1031092D2031092D30331
:1045B0001092D4031092D9031092DA031092DB0305
:1045C0001092DC031092DD031092DE031092E703D9
:1045D0001092E8031092E9031092EA031092EB03A1
:1045E0001092EC031092F5031092F6031092FB0365
:1045F0001092FC031092FD031092FE03109203042C
:10460000109204041092090410920A0410920B04F0
:1046100010920C04109211041092120410921704BC
:10462000109218041092190410921A0410921F0488
:104630001092200410922504109226041092270450
:104640001092280410922D0410922E04109233041C
:1046500010923404109235041092360410923B04E8
:1046600010923C0482E080934C0410924D0410920E
:104670004E0410924F041092510410925004109264
:104680005304109252041092540410925504109244
:104690005604109257041092580410925904109224
:1046A0005A0410925B0410925C0410925D04109204
:1046B0005E0410925F0410926004109261041092E4
:1046C00062041092630410923D0480E490E09093A1
:1046D000B6038093B5038AE290E09093B40380938D
:1046E000B30380E290E09093B2038093B10368ED4E
:1046F00071E08BEA93E00E94E91F68ED71E085EAC2
:1047000093E00E94E91F68ED71E08FE993E0DF918B
:10471000CF911F910F910C94E91FCF93DF93CDB7E9
:10472000DEB76C970FB6F894DEBF0FBECDBF78949E
:1047300084B5826084BD84B5816084BD85B58260A6
:1047400085BD85B5816085BD80916E008160809357
:104750006E001092810080918100826080938100C0
:1047600080918100816080938100809180008160D0
:10477000809380008091B10084608093B10080912B
:10478000B00081608093B00080917A008460809353
:104790007A0080917A00826080937A0080917A001A
:1047A000816080937A0080917A00806880937A009B
:1047B0001092C100E0911203F091130382E0808314
:1047C000E0910E03F0910F031082E0911003F0913D
:1047D00011038FEC808310921A03E0911603F0917D
:1047E000170386E08083E0911403F0911503808124
:1047F00080618083E0911403F091150380818860CB
:104800008083E0911403F091150380818068808398
:10481000E0911403F091150380818F7D80831092C5
:104820007F0410927E0410927D0410927C041092FA
:104830007B0410927A048DE991E090938104809337
:10484000800490917004963108F047C02DEB30E061
:1048500030937B0420937A042BE931E030937D047C
:1048600020937C042CE231E030937F0420937E047B
:104870002091680084E0983048F031E09E3008F4E0
:1048800030E081E001C0880F3A95EAF7822B8093EF
:1048900068002DE630E0983050F02BE630E09E3096
:1048A00030F02CE630E0963110F030E020E030932C
:1048B000780420937704292F30E0983008F03BC12A
:1048C00081E001C0880F9A95EAF78093790480917E
:1048D0008004909181040197F1F780917E0490917A
:1048E0007F04892B49F1E091EF02F091F00224E07E
:1048F000E436F20709F1309739F0A389B4899C9125
:104900008589809589238C93809182048E7F809302
:1049100082041092EE021092ED0284E694E09093ED
:10492000F0028093EF02E0917704F09178048081A7
:1049300090917904892B80838AE69EE10E94C213BC
:1049400081E08093A704332433940E9427154B0100
:104950005C0100E00E942715681979098A099B0902
:10496000683E73408105910508F0CBC284E694E06F
:104970000E94D615892B71F384E694E00E94EE150F
:10498000182F8091540490915504A0915604B09131
:1049900057040196A11DB11D8093540490935504B2
:1049A000A0935604B0935704143209F488C2E091DE
:1049B0004E0415320CF0CCC01A3019F01D3009F03D
:1049C0008CC2EF3008F041C1F0E0E35CFB4F108295
:1049D000D0903C04DD2009F43AC120913D04822F9F
:1049E000022E000C990B3FEB320F363008F0BCC0A2
:1049F000C7978295807F90913E04292F092E000C45
:104A0000330B4FEB490F463008F0B6C0275331093E
:104A1000820F90913B04891305C1809160049091AD
:104A20006104A0916204B09163040196A11DB11DBF
:104A30008093600490936104A0936204B093630434
:104A400080914F04882399F08091580490915904E3
:104A5000A0915A04B0915B040196A11DB11D8093F1
:104A6000580490935904A0935A04B0935B04F090B7
:104A70004C04FF2009F489C0F1E0FF1234C089ED35
:104A800093E00E944A1587EE93E00E944A158091B8
:104A90004F04882341F187E0E7ECF3E0A9EBB3E0B2
:104AA00001900D928A95E1F787E0EEECF3E0A0EC3F
:104AB000B3E001900D928A95E1F70E94271560936B
:104AC000D5037093D6038093D7039093D803F092C5
:104AD000B803F092B70385EF93E00E94331583E0AB
:104AE00094E00E943315E0905204F0905304E114D6
:104AF000F10409F4C6C5E0915204F091530466A193
:104B000077A1F70186A197A10E949E32892B09F017
:104B1000B8C5B701C70140960E94A7320E94271569
:104B2000F70160A371A382A393A321E025A324A38B
:104B3000E2A4F3A4DCCF9E3040F42850310981E098
:104B400001C0880F2A95EAF7C0CE2E503109F7CF61
:104B50001A3209F436CF1C3209F0BFC180913B04F0
:104B6000812780933B042DCF2156263018F487559A
:104B700091093FCFC0973DCF9156963018F42755F5
:104B8000310946CF2053310943CF87EE93E00E948D
:104B90004A1580914F04882321F187E0E7ECF3E088
:104BA000A9EBB3E001900D928A95E1F787E0EEEC76
:104BB000F3E0A0ECB3E001900D928A95E1F70E943A
:104BC00027156093D5037093D6038093D7039093F2
:104BD000D8033092B8033092B70381E194E00E9489
:104BE00033158091290490912A04A0912B04B0914F
:104BF0002C048093250490932604A0932704B0935B
:104C000028040E9427156093210470932204809346
:104C10002304909324043092200430921F048DE2E8
:104C200094E05FCF80915C0490915D04A0915E045C
:104C3000B0915F040196A11DB11D80935C04909317
:104C40005D04A0935E04B0935F04D12C1AC59091CB
:104C50004D04911145C066EB71E08DE394E00E9434
:104C60009E32892B41F06CEB71E08DE394E00E9461
:104C70009E32892BF1F430924C0480915004909133
:104C800051049093530480935204E0905204F090A6
:104C90005304E114F104C9F26DE374E0F70186A155
:104CA00097A10E949E3297FFE5C4F70182A593A5C4
:104CB000E8CF62EC71E08DE394E00E949E32892B94
:104CC00041F068EC71E08DE394E00E949E32892B04
:104CD00019F410924C04D1CF82E080934C04CDCFD4
:104CE000E0914C04E23009F448C080913D048823EF
:104CF00009F443C020E2E29FF0011124E92B31972F
:104D0000E932F10508F039C0E857F94D0C949230BA
:104D1000B126F226F9260027032731273827452711
:104D20005227BD26BD26BD26BD26BD26BD26BD26D5
:104D3000BD26BD26BD26BD26BD26BD26BD26BD265B
:104D4000BD26BD26BD26BD26BD26BD26BD26BD264B
:104D5000B126EC26F226F926002703270A27172773
:104D600024278DE394E00E94541E6093ED0370931A
:104D7000EE038093EF039093F003E0905204F090E1
:104D80005304D0904D04E114F10409F45ECFE09196
:104D90005204F091530466A177A1F70186A197A16F
:104DA0000E949E32892B09F050CFF70120A531A532
:104DB0008D2D90E0821793070CF447CF2817390701
:104DC00039F440E150E06DE374E0C7010E94AE3277
:104DD000F701E2A4F3A4D5CF91E0813409F445C0F2
:104DE00090E043C067EC73E08DE394E00E94CD1D3A
:104DF000C4CF91E0833509F090E09093CD03BDCF0F
:104E00006EEC73E0F1CF91E0873509F090E090937C
:104E1000D403B3CF8DE394E00E94541E6093FF034C
:104E2000709300048093010490930204A6CF8DE355
:104E300094E00E94541E60930D0470930E048093BE
:104E40000F049093100499CF8DE394E00E948B2C73
:104E50006093DF037093E0038093E1039093E20398
:104E60008CCF91E081330CF4BBCF90934F0485CF6E
:104E70008DE394E00E948B2C6093290470932A04A4
:104E800080932B0490932C0478CF8DE394E00E94C0
:104E9000541E6093370470933804809339049093C0
:104EA0003A046BCF8DE394E00E94541E60931B0480
:104EB00070931C0480931D0490931E045ECF109287
:104EC0004E0410924D0410923B04F2E0F0934C0417
:104ED00010923C0410924F0449CDEE3040F481E032
:104EE0008E0F80934E04F0E0E35CFB4F10838091C3
:104EF0003C0481113BCD80913B04182710933B0467
:104F000035CD002309F401C21092200480912504BC
:104F1000909126049093FC028093FB028091B7034A
:104F2000882309F4AEC01092F6036091FB037091E0
:104F3000FC038091FD039091FE030E94032D26E562
:104F40003EE04DEE5FE30E94622D20E030E048EC51
:104F500052E40E942C2F0E949E2F7093FF026093B8
:104F6000FE021092B8036091BB037091BC03809164
:104F7000BD039091BE030E94012D28E23BE64EE660
:104F80005EE40E942C2F6B017C016091B90370914B
:104F9000BA0390E080E00E94012D9B01AC01C701A3
:104FA000B6010E94BB2E2091BF032111905860933F
:104FB000F7027093F8028093F9029093FA026091DD
:104FC000C2037091C3038091C4039091C5030E94F2
:104FD000012D28E23BE64EE65EE40E942C2F6B0199
:104FE0007C016091C0037091C10390E080E00E9459
:104FF000012D9B01AC01C701B6010E94BB2E20917F
:10500000C603211190586093F3027093F4028093C9
:10501000F5029093F60210920404609109047091D5
:105020000A0480910B0490910C040E94032D20E04F
:1050300030E044E351E40E94BB2E20E030E044EB3A
:1050400051E40E942C2F0E949E2FCB0160E170E062
:105050000E947E30FC01EE0FFF1FE45EFE4F608178
:1050600071816115710509F485C2FB010190002071
:10507000E9F73197AF01461B570B8FE993E00E9488
:10508000791FD090E703DD2009F43FC11092E803B7
:105090008090E9039090EA03A090EB03B090EC03BA
:1050A000C501B40120E432E44FE050E00E94892EB3
:1050B000E22EF12CC501B40120E137E240E050E0DE
:1050C0000E94892ECA01B90124E630E040E050E098
:1050D0000E94892E2B017A8F698FC501B40124E6C5
:1050E00030E040E050E00E94892ECA01B90124E678
:1050F00030E040E050E00E94892E7093F20260930D
:10510000F102CE0101960E949A1FB201CE010796CC
:105110000E949A1FB701CE010D960E949A1F6EEC55
:1051200071E0CE0143960E94E91FBE01635F7F4F8D
:10513000CE0143960E94461F0E94221FBE01695F56
:105140007F4F0E94461F0E94221FBE016F5F7F4F4C
:105150000E94461FBC0182E093E00E940C1466EDA1
:1051600071E082E093E00E949C1CCE0143960E9475
:10517000F21ECE010D960E94F21ECE0107960E94ED
:10518000F21ECE0101960E94F21E898D9A8DCC9757
:105190003CF0F201FC97FA8FE98FFFEFEF1AFF0A5C
:1051A00087010D5F1F4F083111051CF08701055164
:1051B00011090D30110514F00C5011096091F10224
:1051C0007091F202CE0101960E949A1F698D7A8D2C
:1051D000CE0107960E949A1FB801CE010D960E943B
:1051E0009A1F69ED71E0CE0143960E94E91FBE014E
:1051F000635F7F4FCE0143960E94461F0E94221F8D
:10520000BE01695F7F4F0E94461F0E94221FBE01A0
:105210006F5F7F4F0E94461FBC0182E093E00E94B7
:105220000C1466ED71E082E093E00E949C1CCE01BC
:1052300043960E94F21ECE010D960E94F21ECE01F0
:1052400007960E94F21ECE0101960E94F21EB8013E
:10525000CE0101960E949A1FBE016F5F7F4F8BEABD
:1052600093E00E94A71ECE0101960E94F21E698D56
:105270007A8DCE0101960E949A1FBE016F5F7F4F0B
:1052800085EA93E00E94A71ECE0101960E94F21EBD
:105290008091AF039091B003019709F070C166EE61
:1052A00071E0CE0101960E94E91F6BEA73E0CE0126
:1052B00001960E94461F1D2DBC018BEA93E00E94BF
:1052C000D21F112321F0CE0101960E94F21E80917F
:1052D000A9039091AA03019709F055C166EE71E008
:1052E000CE0101960E94E91F65EA73E0CE010196A6
:1052F0000E94461FBC0185EA93E00E94D21FDD2078
:1053000021F0CE0101960E94F21EA091FE02B09102
:10531000FF022AE530E00E94983028EC30E040E0BF
:1053200050E00E94202E2D3208F031C129572093E1
:10533000FD028091C004811105C021E02093C004CA
:105340000E9460160091890410918A04E091B804CB
:10535000F091B90482E00995E091B804F091B904A4
:1053600081E0099530E020E044E1B80187E894E06D
:105370000E945C162AEB34E047E1B80187E894E02C
:105380000E945C16E091B804F091B90480E00995A0
:1053900025E0222E1091FD028AE69EE10E94C213B2
:1053A0004091B1034A5F21E06091B3038091B5035E
:1053B0000E94241B4091B1034C5F21E06091B30334
:1053C0008091B5030E94241B4091B1034A5F22E003
:1053D0006091B3038091B5030E94241B4091B103F7
:1053E0004C5F22E06091B3038091B5030E94241BBF
:1053F00046EE51E06AE284E10E94491C41EE51E030
:105400006DE182E10E94491C49EE51E06EE08CE1C1
:105410000E94491C44EE51E06EE08CE30E94491C5E
:1054200048EE51E06EE08BE50E94491C4CEE51E0E5
:105430006DE185E60E94491C40EF51E06AE289E691
:105440000E94491C86E38093BE0499E19093BF04B7
:1054500064EF71E083E894E00E949C1CE2E3E09337
:10546000BE04F0E2F093BF0469EF71E083E894E0DA
:105470000E949C1C24E0129FB0011124072E000CF6
:10548000880B990B0E94032D23EC35EF48E450E480
:105490000E94622D20E030E044EB53E40E942C2F68
:1054A0006B017C010E941830698F7A8F8B8F9C8FE3
:1054B000C701B6010E94272F2B013C010091B303C5
:1054C0001091B4036091B1037091B203072E000CE8
:1054D000880B990B0E94032D6B017C01B801110F01
:1054E000880B990B0E94032D4B015C01A7019601CB
:1054F000C301B2010E94622D9B01AC01C501B40140
:105500000E94BA2E0E94A52F962EA090B503B090AF
:10551000B603B501BB0C880B990B0E94032D2B0120
:105520003C01A7019601698D7A8D8B8D9C8D0E941F
:10553000622D9B01AC01C301B2010E94BB2E0E94EF
:10554000A52FF62EC02EEA2CDA2CD61A6A1510F0EA
:10555000D62EDA189C14E8F4802E8918D81478F125
:10556000FE1408F0AEC11D2D1695EF2CFA2CC92C97
:1055700000E022C08FE993E00E94E01E82CD10E09F
:105580008BEA93E099CED12C85EA93E0B3CE2D52ED
:10559000CECE892C801AD81408F090C18D2DD82C2D
:1055A000882E8F2DF92C982EE02ECA2C01E01D2D6F
:1055B0001695C91408F07DC0BB24B3947CC08D2D12
:1055C000D82C882ECF2CF02EE92C9A2CEFCF6C2DD6
:1055D0008E2D002311F06E2D8C2D0E94C6161819E9
:1055E00017FF02C0CB0C1D0DE3946AC0D0FE04C0AF
:1055F0006F2D8E2D0E94C616E394D69494E1E91285
:10560000F5CF0D5F1F4FF394F91609F477C0F80139
:1056100080816091890470918A04F7E0F093A3047B
:10562000F092A40422E02093A6048093A50423EA28
:1056300034E04BE387E894E00E945C16F801818136
:105640006091890470918A04FFE0F093A304F092C2
:10565000A40422E02093A6048093A50423EA34E066
:105660004BE387E894E00E945C16F801D28080E169
:10567000E82EBCCF892B09F4E8CA1092530410928B
:10568000520480914D048F5F80934D0410924E041C
:1056900081E01A3209F080E080933C04DD2009F4B7
:1056A00065C90D2D57C91D2D1695EF2CFA2CC92C47
:1056B00000E0BB24BA948FEFF81202C09EEFF92EDF
:1056C000FE1408F084CF42E06091B3038091B503EB
:1056D0000E94031B41E06091B3038091B5030E94D7
:1056E000031B04E124E140E060E087E894E00E94CD
:1056F000131A0CE311E0F12C811189CF82E1809320
:10570000BE042092BF046091FB027091FC02072E40
:10571000000C880B990B45E00E94AB1CFEE6F09351
:10572000BE042092BF046FE973E083E894E00E9416
:105730000C141092BE0427E32093BF046091F7027B
:105740007091F8028091F9029091FA0244E00E946F
:10575000F11C1092BE048EE38093BF046091F302AB
:105760007091F4028091F5029091F60244E00E945B
:10577000F11C88E59AE10E94C2138AE58093BE0479
:1057800081E48093BF046BEA73E083E894E00E94B5
:105790000C148091F10244EB51E080FF02C044ED13
:1057A00051E061E488E60E94491C8FE68093BE04C4
:1057B00081E48093BF0465EA73E083E894E00E948B
:1057C0000C1482E291E00E94C21396E39093BE040F
:1057D0008CE38093BF048091FE029091FF020A97B0
:1057E00034F466EE71E083E894E00E949C1CC09063
:1057F000FE02D090FF02E4E6CE16D10434F08FE230
:105800008093BE048CE38093BF040D2C000CEE0843
:10581000FF084AE0C701B601F7FE0DC06DE283E85C
:1058200094E00E94721C66277727CB016C197D09D2
:105830008E099F094AE00E94AB1CE0919504F0910B
:105840009604309719F087E894E00995009189044F
:1058500010918A04E091B804F091B90482E00995AE
:10586000E091B804F091B90481E0099530E020E0BE
:1058700045E1B80187E894E00E945C16F82E882381
:1058800041F02AEB34E047E1B80187E894E00E9458
:105890005C16E091B804F091B90480E00995F1102C
:1058A00079CD80E090E0892B09F44FC80E948414E0
:1058B000882309F448C80E94000045C8FE1408F473
:1058C000F2CE00E074CE8FE993E00E94F21E85EAEA
:1058D00093E00E94F21E8BEA93E00E94F21E8EE893
:1058E00091E090936504809364048091EF0290911D
:1058F000F0028456944071F4E0917704F0917804BA
:105900009081809179048095892380831092F002A0
:105910001092EF0208951F93FC0199278827BC017C
:10592000E89411911032E9F3193010F01E30C8F3E9
:105930001B3251F01D3249F4689406C00E94BD2C00
:10594000610F711D811D911D119110531A30B0F31B
:105950003EF490958095709561957F4F8F4F9F4F46
:105960001F910895BB274A3031F4992322F4BDE2F8
:10597000909581959F4F0C94D32C592F482F372FFA
:10598000262F660F771F881F991F660F771F881FA6
:10599000991F620F731F841F951F660F771F881F43
:1059A000991F0895BB27FB015527AA27880F991F28
:1059B000AA1FA41710F0A41B83955051B9F7A05D3E
:1059C000AA3308F0A95DA193009779F7B111B193BB
:1059D0001192CB010C94EC2CDC01FC01672F71912E
:1059E0007723E1F7329704C07C916D9370836291C5
:1059F000AE17BF07C8F308950E943E2D08F481E05A
:105A00000895E89409C097FB3EF4909580957095B1
:105A100061957F4F8F4F9F4F9923A9F0F92F96E9FA
:105A2000BB279395F695879577956795B795F1116F
:105A3000F8CFFAF4BB0F11F460FF1BC06F5F7F4F0C
:105A40008F4F9F4F16C0882311F096E911C077231E
:105A500021F09EE8872F762F05C0662371F096E827
:105A6000862F70E060E02AF09A95660F771F881FF6
:105A7000DAF7880F9695879597F90895990F00089A
:105A8000550FAA0BE0E8FEEF16161706E807F90710
:105A9000C0F012161306E407F50798F0621B730BAB
:105AA000840B950B39F40A2661F0232B242B252B2C
:105AB00021F408950A2609F4A140A6958FEF811DCF
:105AC000811D08950E94752D0C94E62D0E94D82DFD
:105AD00038F00E94DF2D20F0952311F00C94CF2D8B
